{
  "contractName": "PetShop",
  "abi": [
    {
      "inputs": [
        {
          "internalType": "uint256",
          "name": "n",
          "type": "uint256"
        }
      ],
      "payable": true,
      "stateMutability": "payable",
      "type": "constructor"
    },
    {
      "anonymous": false,
      "inputs": [],
      "name": "Buy",
      "type": "event"
    },
    {
      "anonymous": false,
      "inputs": [],
      "name": "Sell",
      "type": "event"
    },
    {
      "constant": true,
      "inputs": [
        {
          "internalType": "uint256",
          "name": "",
          "type": "uint256"
        }
      ],
      "name": "pets",
      "outputs": [
        {
          "internalType": "uint256",
          "name": "id",
          "type": "uint256"
        },
        {
          "internalType": "address payable",
          "name": "currentOwner",
          "type": "address"
        },
        {
          "internalType": "uint256",
          "name": "price",
          "type": "uint256"
        },
        {
          "internalType": "bool",
          "name": "isForSell",
          "type": "bool"
        }
      ],
      "payable": false,
      "stateMutability": "view",
      "type": "function"
    },
    {
      "constant": true,
      "inputs": [],
      "name": "getPets",
      "outputs": [
        {
          "components": [
            {
              "internalType": "uint256",
              "name": "id",
              "type": "uint256"
            },
            {
              "internalType": "address payable",
              "name": "currentOwner",
              "type": "address"
            },
            {
              "internalType": "uint256",
              "name": "price",
              "type": "uint256"
            },
            {
              "internalType": "bool",
              "name": "isForSell",
              "type": "bool"
            }
          ],
          "internalType": "struct PetShop.Pet[]",
          "name": "",
          "type": "tuple[]"
        }
      ],
      "payable": false,
      "stateMutability": "view",
      "type": "function"
    },
    {
      "constant": false,
      "inputs": [
        {
          "internalType": "uint256",
          "name": "_id",
          "type": "uint256"
        }
      ],
      "name": "buy",
      "outputs": [],
      "payable": true,
      "stateMutability": "payable",
      "type": "function"
    },
    {
      "constant": false,
      "inputs": [
        {
          "internalType": "uint256",
          "name": "_id",
          "type": "uint256"
        },
        {
          "internalType": "uint256",
          "name": "_price",
          "type": "uint256"
        }
      ],
      "name": "listForSell",
      "outputs": [],
      "payable": false,
      "stateMutability": "nonpayable",
      "type": "function"
    },
    {
      "constant": false,
      "inputs": [
        {
          "internalType": "uint256",
          "name": "_price",
          "type": "uint256"
        }
      ],
      "name": "addPet",
      "outputs": [
        {
          "internalType": "uint256",
          "name": "",
          "type": "uint256"
        }
      ],
      "payable": false,
      "stateMutability": "nonpayable",
      "type": "function"
    },
    {
      "constant": true,
      "inputs": [
        {
          "internalType": "uint256",
          "name": "_id",
          "type": "uint256"
        }
      ],
      "name": "getPrice",
      "outputs": [
        {
          "internalType": "uint256",
          "name": "",
          "type": "uint256"
        }
      ],
      "payable": false,
      "stateMutability": "view",
      "type": "function"
    },
    {
      "constant": true,
      "inputs": [
        {
          "internalType": "uint256",
          "name": "_id",
          "type": "uint256"
        }
      ],
      "name": "getOwner",
      "outputs": [
        {
          "internalType": "address",
          "name": "",
          "type": "address"
        }
      ],
      "payable": false,
      "stateMutability": "view",
      "type": "function"
    }
  ],
  "bytecode": "0x608060405260405161100f38038061100f83398181016040526100259190810190610149565b60008090505b8181101561012d57600060405180608001604052808381526020013373ffffffffffffffffffffffffffffffffffffffff168152602001671bc16d674ec80000815260200160011515815250908060018154018082558091505090600182039060005260206000209060040201600090919290919091506000820151816000015560208201518160010160006101000a81548173ffffffffffffffffffffffffffffffffffffffff021916908373ffffffffffffffffffffffffffffffffffffffff1602179055506040820151816002015560608201518160030160006101000a81548160ff021916908315150217905550505050808060010191505061002b565b5050610193565b6000815190506101438161017c565b92915050565b60006020828403121561015b57600080fd5b600061016984828501610134565b91505092915050565b6000819050919050565b61018581610172565b811461019057600080fd5b50565b610e6d806101a26000396000f3fe6080604052600436106100705760003560e01c8063c41a360a1161004e578063c41a360a14610106578063cfb869bf14610143578063d96a094a14610183578063e75722301461019f57610070565b806338445e381461007557806366cad66f1461009e5780636d71ad38146100db575b600080fd5b34801561008157600080fd5b5061009c60048036036100979190810190610982565b6101dc565b005b3480156100aa57600080fd5b506100c560048036036100c09190810190610959565b61035d565b6040516100d29190610d0f565b60405180910390f35b3480156100e757600080fd5b506100f06104c7565b6040516100fd9190610c4d565b60405180910390f35b34801561011257600080fd5b5061012d60048036036101289190810190610959565b6105ab565b60405161013a9190610c32565b60405180910390f35b34801561014f57600080fd5b5061016a60048036036101659190810190610959565b610654565b60405161017a9493929190610d2a565b60405180910390f35b61019d60048036036101989190810190610959565b6106be565b005b3480156101ab57600080fd5b506101c660048036036101c19190810190610959565b6108bb565b6040516101d39190610d0f565b60405180910390f35b8133600082101580156101f3575060008054905082105b610232576040517f08c379a000000000000000000000000000000000000000000000000000000000815260040161022990610caf565b60405180910390fd5b600080838154811061024057fe5b906000526020600020906004020190508173ffffffffffffffffffffffffffffffffffffffff168160010160009054906101000a900473ffffffffffffffffffffffffffffffffffffffff1673ffffffffffffffffffffffffffffffffffffffff16146102e2576040517f08c379a00000000000000000000000000000000000000000000000000000000081526004016102d990610c6f565b60405180910390fd5b60008086815481106102f057fe5b90600052602060002090600402019050600115158160030160009054906101000a900460ff1615151461034c578060030160009054906101000a900460ff16158160030160006101000a81548160ff0219169083151502179055505b848160020181905550505050505050565b6000816000811015801561039057507fffffffffffffffffffffffffffffffffffffffffffffffffffffffffffffffff81105b6103cf576040517f08c379a00000000000000000000000000000000000000000000000000000000081526004016103c690610cef565b60405180910390fd5b600080805490509050600060405180608001604052808381526020013373ffffffffffffffffffffffffffffffffffffffff16815260200186815260200160011515815250908060018154018082558091505090600182039060005260206000209060040201600090919290919091506000820151816000015560208201518160010160006101000a81548173ffffffffffffffffffffffffffffffffffffffff021916908373ffffffffffffffffffffffffffffffffffffffff1602179055506040820151816002015560608201518160030160006101000a81548160ff0219169083151502179055505050508092505050919050565b60606000805480602002602001604051908101604052809291908181526020016000905b828210156105a25783829060005260206000209060040201604051806080016040529081600082015481526020016001820160009054906101000a900473ffffffffffffffffffffffffffffffffffffffff1673ffffffffffffffffffffffffffffffffffffffff1673ffffffffffffffffffffffffffffffffffffffff168152602001600282015481526020016003820160009054906101000a900460ff161515151581525050815260200190600101906104eb565b50505050905090565b600081600081101580156105c3575060008054905081105b610602576040517f08c379a00000000000000000000000000000000000000000000000000000000081526004016105f990610caf565b60405180910390fd5b600080848154811061061057fe5b9060005260206000209060040201905060008160010160009054906101000a900473ffffffffffffffffffffffffffffffffffffffff169050809350505050919050565b6000818154811061066157fe5b90600052602060002090600402016000915090508060000154908060010160009054906101000a900473ffffffffffffffffffffffffffffffffffffffff16908060020154908060030160009054906101000a900460ff16905084565b80600081101580156106d4575060008054905081105b610713576040517f08c379a000000000000000000000000000000000000000000000000000000000815260040161070a90610caf565b60405180910390fd5b600080838154811061072157fe5b90600052602060002090600402019050600115158160030160009054906101000a900460ff16151514610789576040517f08c379a000000000000000000000000000000000000000000000000000000000815260040161078090610c8f565b60405180910390fd5b80600201543410156107d0576040517f08c379a00000000000000000000000000000000000000000000000000000000081526004016107c790610ccf565b60405180910390fd5b8060010160009054906101000a900473ffffffffffffffffffffffffffffffffffffffff1673ffffffffffffffffffffffffffffffffffffffff166108fc349081150290604051600060405180830381858888f1935050505015801561083a573d6000803e3d6000fd5b508060030160009054906101000a900460ff16158160030160006101000a81548160ff02191690831515021790555060008160020181905550338160010160006101000a81548173ffffffffffffffffffffffffffffffffffffffff021916908373ffffffffffffffffffffffffffffffffffffffff160217905550505050565b600081600081101580156108d3575060008054905081105b610912576040517f08c379a000000000000000000000000000000000000000000000000000000000815260040161090990610caf565b60405180910390fd5b600080848154811061092057fe5b90600052602060002090600402019050600081600201549050809350505050919050565b60008135905061095381610e13565b92915050565b60006020828403121561096b57600080fd5b600061097984828501610944565b91505092915050565b6000806040838503121561099557600080fd5b60006109a385828601610944565b92505060206109b485828601610944565b9150509250929050565b60006109ca8383610bbf565b60808301905092915050565b6109df81610dcb565b82525050565b6109ee81610dcb565b82525050565b6109fd81610db9565b82525050565b6000610a0e82610d7f565b610a188185610d97565b9350610a2383610d6f565b8060005b83811015610a54578151610a3b88826109be565b9750610a4683610d8a565b925050600181019050610a27565b5085935050505092915050565b610a6a81610ddd565b82525050565b610a7981610ddd565b82525050565b6000610a8c600a83610da8565b91507f4e6f74204f776e657221000000000000000000000000000000000000000000006000830152602082019050919050565b6000610acc601383610da8565b91507f506574206973206e6f7420666f722073656c6c000000000000000000000000006000830152602082019050919050565b6000610b0c600a83610da8565b91507f496e76616c6964204944000000000000000000000000000000000000000000006000830152602082019050919050565b6000610b4c601483610da8565b91507f496e73756666696369656e742042616c616e63650000000000000000000000006000830152602082019050919050565b6000610b8c600c83610da8565b91507f496e7661696420507269636500000000000000000000000000000000000000006000830152602082019050919050565b608082016000820151610bd56000850182610c14565b506020820151610be860208501826109d6565b506040820151610bfb6040850182610c14565b506060820151610c0e6060850182610a61565b50505050565b610c1d81610e09565b82525050565b610c2c81610e09565b82525050565b6000602082019050610c4760008301846109f4565b92915050565b60006020820190508181036000830152610c678184610a03565b905092915050565b60006020820190508181036000830152610c8881610a7f565b9050919050565b60006020820190508181036000830152610ca881610abf565b9050919050565b60006020820190508181036000830152610cc881610aff565b9050919050565b60006020820190508181036000830152610ce881610b3f565b9050919050565b60006020820190508181036000830152610d0881610b7f565b9050919050565b6000602082019050610d246000830184610c23565b92915050565b6000608082019050610d3f6000830187610c23565b610d4c60208301866109e5565b610d596040830185610c23565b610d666060830184610a70565b95945050505050565b6000819050602082019050919050565b600081519050919050565b6000602082019050919050565b600082825260208201905092915050565b600082825260208201905092915050565b6000610dc482610de9565b9050919050565b6000610dd682610de9565b9050919050565b60008115159050919050565b600073ffffffffffffffffffffffffffffffffffffffff82169050919050565b6000819050919050565b610e1c81610e09565b8114610e2757600080fd5b5056fea365627a7a723158202f0398c8fa65e73b8d19d35bcaed89edb585397d77fbaff35eab583e1c1740236c6578706572696d656e74616cf564736f6c63430005100040",
  "source": "pragma solidity ^0.5.0;\r\npragma experimental ABIEncoderV2;\r\n\r\ncontract PetShop {\r\n    event Buy();\r\n    event Sell();\r\n\r\n    struct Pet {\r\n        uint256 id;\r\n        address payable currentOwner;\r\n        uint256 price;\r\n        bool isForSell;\r\n    }\r\n\r\n    Pet[] public pets;\r\n\r\n    constructor(uint256 n) public payable {\r\n        // contract owner\r\n        for (uint256 i = 0; i < n; i++) {\r\n            pets.push(Pet(i, address(uint160(msg.sender)), 2 ether, true));\r\n        }\r\n    }\r\n\r\n    // Retrieving the pets\r\n    function getPets() public view returns (Pet[] memory) {\r\n        return pets;\r\n    }\r\n\r\n    modifier validateId(uint256 _id) {\r\n        require(_id >= 0 && _id < pets.length, \"Invalid ID\");\r\n        _;\r\n    }\r\n\r\n    modifier validateOwner(uint256 _id, address _owner) {\r\n        require(_id >= 0 && _id < pets.length, \"Invalid ID\");\r\n        Pet storage pet = pets[_id];\r\n        require(pet.currentOwner == _owner, \"Not Owner!\");\r\n        _;\r\n    }\r\n\r\n    modifier validatePrice(uint256 _price) {\r\n        require(_price >= 0 && _price < 2**256 - 1, \"Invaid Price\");\r\n        _;\r\n    }\r\n\r\n    // Buy a pet\r\n    function buy(uint256 _id) public payable validateId(_id) {\r\n        Pet storage pet = pets[_id];\r\n\r\n        // validate status\r\n        require(pet.isForSell == true, \"Pet is not for sell\");\r\n\r\n        // validate price\r\n        require(msg.value >= pet.price, \"Insufficient Balance\");\r\n\r\n        // send ether to current owner\r\n        pet.currentOwner.transfer(msg.value);\r\n\r\n        // update sell status\r\n        pet.isForSell = !pet.isForSell;\r\n\r\n        // update the price to zero\r\n        pet.price = 0;\r\n\r\n        // update the owner\r\n        pet.currentOwner = address(uint160(msg.sender));\r\n    }\r\n\r\n    // list a pet for selling\r\n    function listForSell(uint256 _id, uint256 _price)\r\n        public\r\n        validateOwner(_id, msg.sender)\r\n    {\r\n        Pet storage pet = pets[_id];\r\n        if (pet.isForSell != true) {\r\n            pet.isForSell = !pet.isForSell;\r\n        }\r\n        pet.price = _price;\r\n    }\r\n\r\n    // add a pet\r\n    function addPet(uint256 _price)\r\n        public\r\n        validatePrice(_price)\r\n        returns (uint256)\r\n    {\r\n        uint256 id = pets.length;\r\n        pets.push(Pet(id, address(uint160(msg.sender)), _price, true));\r\n        return id;\r\n    }\r\n\r\n    // get price for a given id\r\n    function getPrice(uint256 _id)\r\n        public\r\n        view\r\n        validateId(_id)\r\n        returns (uint256)\r\n    {\r\n        Pet storage pet = pets[_id];\r\n        uint256 price = pet.price;\r\n        return price;\r\n    }\r\n\r\n    // get the owner for a given pet\r\n    function getOwner(uint256 _id)\r\n        public\r\n        view\r\n        validateId(_id)\r\n        returns (address)\r\n    {\r\n        Pet storage pet = pets[_id];\r\n        address owner = pet.currentOwner;\r\n        return owner;\r\n    }\r\n}\r\n",
  "sourcePath": "F:/D/Desktop/MyProjects/dapps/pet-shop-project/contracts/PetShop.sol",
  "compiler": {
    "name": "solc",
    "version": "0.5.16+commit.9c3226ce.Emscripten.clang"
  },
  "schemaVersion": "3.4.1",
  "updatedAt": "2021-08-30T09:44:18.055Z",
  "networkType": "ethereum",
  "devdoc": {
    "methods": {}
  },
  "userdoc": {
    "methods": {}
  }
}